:020000040000FA
:10000000800400206D0200007102000073020000F5
:100010007502000077020000790200000000000075
:100020000000000000000000000000007B02000053
:100030007D020000000000007F020000810200003D
:10004000830200008302000083020000830200009C
:10005000830200008302000083020000830200008C
:10006000830200008302000083020000830200007C
:10007000830200008302000083020000830200006C
:10008000830200008302000083020000830200005C
:10009000830200008302000083020000830200004C
:1000A000830200008302000083020000830200003C
:1000B0008302000083020000CD03000083020000E1
:1000C000830200008302000083020000830200001C
:1000D000830200008302000083020000830200000C
:1000E00083020000830200008302000083020000FC
:1000F00083020000830200008302000083020000EC
:1001000083020000830200008302000083020000DB
:1001100083020000830200008302000083020000CB
:1001200083020000830200008302000083020000BB
:1001300083020000830200008302000083020000AB
:1001400000000000000000000000000000000000AF
:10015000830200008302000083020000830200008B
:10016000000000000000000000000000000000008F
:10017000000000000000000000000000000000007F
:10018000000000000000000000000000000000006F
:10019000000000000000000000000000000000005F
:1001A000000000000000000000000000000000004F
:1001B000830200008302000083020000830200002B
:1001C000830200008302000083020000830200001B
:1001D000830200008302000083020000830200000B
:1001E00083020000830200008302000083020000FB
:1001F00083020000830200008302000083020000EB
:10020000830200008302000083020000000000005F
:1002100083020000830200008302000083020000CA
:1002200083020000830200008302000083020000BA
:1002300083020000830200008302000083020000AA
:10024000830200008302000083020000830200009A
:10025000830200008302000083020000830200008A
:1002600083020000830200008302000000F00AB84D
:10027000FEE7FEE7FEE7FEE7FEE7FEE7FEE7FEE756
:10028000FEE7FEE700F002F800F03AF80AA090E876
:10029000000C82448344AAF10107DA4501D100F041
:1002A0002FF8AFF2090EBAE80F0013F0010F18BFD4
:1002B000FB1A43F0010318472C0700004C0700000D
:1002C000103A24BF78C878C1FAD8520724BF30C882
:1002D00030C144BF04680C60704700000023002454
:1002E00000250026103A28BF78C1FBD8520728BF46
:1002F00030C148BF0B6070471FB51FBD10B510BDA2
:1003000000F029F81146FFF7F7FF00F055FB00F069
:1003100047F803B4FFF7F2FF03BC00F04FF800000A
:1003200072B6704762B67047EFF3108072B67047CE
:1003300080F31088704730BF704702480249014A75
:10034000024B7047800000208004002080000020C5
:10035000704770477047754600F02CF8AE460500B0
:100360006946534620F00700854618B020B5FFF7D0
:10037000E4FFBDE820404FF000064FF000074FF0CB
:1003800000084FF0000B21F00701AC46ACE8C009B3
:10039000ACE8C009ACE8C009ACE8C0098D467047BC
:1003A00010B50446AFF300802046BDE81040FFF7CB
:1003B000B0BF0000004870471C0000200149182011
:1003C000ABBEFEE7260002007047000010B5002417
:1003D00000BF00E0641C41488442FBDB40480068E9
:1003E00000F0100000285CD010203D490831086062
:1003F0003C480068401C3B490860084600680521ED
:10040000B0FBF1F201FB1200012808D13648408808
:10041000364908600846006800F07CF837E031484B
:1004200000680521B0FBF1F201FB1200022804D1A3
:100430002D4880882D49086029E02A480068052158
:10044000B0FBF1F201FB1200032804D12648C0885A
:10045000264908601BE0234800680521B0FBF1F243
:1004600001FB1200042804D11F4800891F490860BD
:100470000DE01D4800881D49086002201849183900
:10048000086000201A49C1F8FC03164908601749A2
:10049000098888B200F08AF81449098888B200F007
:1004A00025F90F48006800F00100B0B101200C49A7
:1004B000083108600F480068401C0E490860084673
:1004C000007800F0010020B10848006800F014F83E
:1004D00003E00648006800F01DF810BD80841E008F
:1004E0001454024004000020100000200C000020E2
:1004F000005000400800002030B10421034A116080
:100500000A21034AC2F8FC1370470000FC53024062
:100510000050004030B10821034A11600521034A10
:10052000C2F8FC1370470000FC530240005000402A
:100530001D48006F40F000401B4908670846006FE7
:1005400040F4006008670846006E20F4F860086612
:100550000846006E00F5A86008660846006F20F0A7
:10056000700008670846006F08670846006F20F4AF
:10057000005008670846006F40F080400867084652
:10058000006F20F0FE5000F1E070086700BF0648E1
:10059000006D00F040000028F9D00348006F20F4FF
:1005A000006001490867704700E00F4030B9002142
:1005B000104A11600F4A243211601AE00E4909886E
:1005C00088420BD10B49096841F040010B4AC2F83F
:1005D000FC130021074A243211600AE00549243146
:1005E000096841F04001034A24321160411E044A67
:1005F00091657047FC53004000000020005000400F
:100600000080024008B5324A1080324A126842F037
:100610000202304B1A602F4A3832126842F001024F
:100620002C4B38331A602B4A126800922A4A2B4B03
:100630001A601A1D126842F040021B1D1A60284AF7
:10064000126842F04002264B1A60254A203A12688E
:1006500042F04002224B203B1A60204A0C321268C2
:1006600022F070621D4B0C331A601A46126842F079
:1006700080621A601A1F126822F040021B1F1A6063
:10068000164A121F126842F04002144B1B1F1A60D8
:10069000144A126E42F48012124B1A661A46126EF7
:1006A00022F460221A661A46126E1A6600220E4B57
:1006B0001A64C8221A66421E1A654A1E9A650122E9
:1006C0001A641A46926842F001029A6008BD00005E
:1006D0000000002008E60F404B434F4C20550040DF
:1006E0002054004000E00F400080024030B900215B
:1006F000104A11600F4A243211601AE00E4909882D
:1007000088420BD10B49096841F080010B4AC2F8BD
:10071000FC130021074A243211600AE00549243104
:10072000096841F08001034A24321160411E044AE5
:1007300091657047FC5300400000002000500040CD
:100740000080024008B5324A126842F00102304B84
:100750001A602F4A383A126842F002022C4B383B9A
:100760001A601A46126800922A4A10802A4A2B4BB5
:100770001A601A1D126842F080021B1D1A60284A76
:10078000126842F08002264B1A60244A0C3212682A
:1007900022F07042214B0C331A601A46126842F064
:1007A00080421A601A1F126822F080021B1F1A6012
:1007B0001A4A121F126842F08002184B1B1F1A605F
:1007C000174A203A126842F08002154B203B1A600B
:1007D000144A126E42F48012124B1A661A46126EB6
:1007E00022F460221A661A46126E1A6600220E4B16
:1007F0001A6440F60C025A66421E1A654A1EDA65F1
:1008000001221A641A46926842F002029A6008BDF8
:1008100040E60F40000000204B434F4C2055004065
:100820002054004000E00F40008002405A48006819
:1008300040F022005949C1F808015948006820F0E9
:100840000F0057490860081D00686FF30F00091D6D
:1008500008605448006840F00F0052490860514851
:100860002030006820F00F004E49203108604C48CD
:100870000C38006840F00F0049490C3908604A48BC
:10088000006820F00E0048490860081D00684FF617
:10089000F07188434449091D08604448006840F0ED
:1008A0000E004249086041482030006820F00E00E8
:1008B0003E49203108603C480C38006840F00E008A
:1008C00039490C39086002203849091F0860384846
:1008D0003549083908603448006820F01100324971
:1008E0000860081D006820F00F10091D08602F48DF
:1008F000006820F011002D4908602C482030006865
:1009000020F0110029492031086011202649091FD3
:10091000086025481838006840F01100224918394D
:10092000086021480C38006840F011001E490C395D
:1009300008601E48006820F011001C490860081D6E
:10094000006820F01100091D0860081D006820F0F3
:100950001100091D0860081D006820F01100091D24
:100960000860112011491C310860104810300068DF
:1009700040F011000D49103108600E48006820F465
:100980007F0040F420000B4908604FF080404FF09A
:10099000E021C1F80001704708E10F4000E00F407E
:1009A00028550040005400402855024000540240A1
:1009B0004B434F4C1CE400E0FFF7B2FCFFF7B8FDDF
:1009C000002146F2A810FFF7BDFE002146F2A81054
:1009D000FFF718FEFFF72AFFFFF7A4FC01E0FFF77F
:1009E000AAFCFCE7040A0000000000201C00000034
:1009F000C0020000200A00001C0000206404000067
:100A0000DC02000000000000000000000000000008
:100A10000000000000004C1D983A204EB45F00001A
:040000050000026D88
:00000001FF
